:020000040800F2
:100000000000082409100008390E0008410E0008FD
:10001000490E0008510E0008590E000800000000AB
:10002000000000000000000000000000610E000859
:100030006F0E0008000000007D0E00088B0E000807
:100040005D1000085D1000085D1000085D100008DC
:100050005D1000085D1000085D1000085D100008CC
:100060005D1000085D1000085D1000085D100008BC
:100070005D1000085D1000085D1000085D100008AC
:100080005D1000085D1000085D1000085D1000089C
:100090005D1000085D1000085D1000085D1000088C
:1000A0005D1000085D1000085D1000085D1000087C
:1000B0005D1000085D1000085D1000085D1000086C
:1000C0005D1000085D1000085D1000085D1000085C
:1000D0005D1000085D1000085D1000085D1000084C
:1000E0005D1000085D100008000000005D100008B1
:1000F0005D1000085D1000085D1000085D1000082C
:100100005D1000085D1000085D1000085D1000081B
:100110005D1000085D1000085D1000085D1000080B
:100120005D1000085D1000085D1000085D100008FB
:100130005D1000085D1000085D1000085D100008EB
:1001400000000000000000000000000000000000AF
:100150005D1000085D1000085D1000085D100008CB
:100160005D1000085D1000085D1000085D100008BB
:100170005D1000085D1000085D1000085D100008AB
:100180005D1000085D1000085D1000085D1000089B
:100190005D1000085D1000085D1000085D1000088B
:1001A0005D1000085D1000085D1000085D1000087B
:1001B0005D1000085D1000085D1000085D1000086B
:1001C0005D1000085D1000085D1000085D1000085B
:1001D0005D1000085D1000085D1000085D1000084B
:1001E0005D1000085D1000085D1000085D1000083B
:1001F0005D1000085D1000085D1000085D1000082B
:100200005D1000085D1000085D1000085D1000081A
:100210005D1000085D1000085D1000085D1000080A
:100220005D1000085D1000085D100008000000006F
:100230005D1000085D100008000000005D1000085F
:100240005D1000085D1000085D1000085D100008DA
:100250005D1000085D1000085D1000085D100008CA
:100260005D1000085D1000085D1000085D100008BA
:100270005D1000085D1000085D100008000000001F
:100280005D1000085D1000085D100008000000000F
:08029000000000005D100008F1
:1002980010B5054C237833B9044B13B10448AFF3B8
:1002A80000800123237010BD10000024000000000E
:1002B8007449000808B5034B1BB103490348AFF361
:1002C800008008BD000000001400002474490008E4
:1002D80080B58AB000AF07F1140300221A605A6093
:1002E8009A60DA601A61314BD3F8E0302F4A43F054
:1002F8001003C2F8E0302D4BD3F8E03003F01003C0
:100308003B613B69294BD3F8E030284A43F080032E
:10031800C2F8E030254BD3F8E03003F08003FB60EF
:10032800FB68224BD3F8E030204A43F00203C2F8BE
:10033800E0301E4BD3F8E03003F00203BB60BB682B
:100348001A4BD3F8E030194A43F00803C2F8E030FA
:10035800164BD3F8E03003F008037B607B68134B3F
:10036800D3F8E030114A43F00103C2F8E0300F4BF4
:10037800D3F8E03003F001033B603B680022022120
:100388000B4801F0A5FA02237B610123BB6100231E
:10039800FB6100233B6207F114031946044800F08F
:1003A800DDFF00BF2837BD4680BD00BF00440258AE
:1003B8000010025880B485B000AF344B5B6903F479
:1003C8000033002B1BD1BFF34F8F00BFBFF36F8FDC
:1003D80000BF2E4B0022C3F85022BFF34F8F00BF3F
:1003E800BFF36F8F00BF294B5B69284A43F4003382
:1003F8005361BFF34F8F00BFBFF36F8F00E000BFA3
:10040800224B5B6903F48033002B38D11F4B002249
:10041800C3F88420BFF34F8F00BF1C4BD3F8803044
:10042800FB60FB685B0BC3F30E03BB60FB68DB0878
:10043800C3F309037B60BB685A0143F6E0731340BA
:100448007A68920711491343C1F860327B685A1ED3
:100458007A60002BEFD1BB685A1EBA60002BE5D139
:10046800BFF34F8F00BF094B5B69084A43F48033E1
:100478005361BFF34F8F00BFBFF36F8F00E000BF22
:1004880000BF1437BD465DF8047B704700ED00E0FF
:1004980080B485B000AFBFF34F8F00BFBFF36F8F3D
:1004A80000BF284B5B69274A23F400335361254B6F
:1004B8000022C3F85022BFF34F8F00BFBFF36F8FE6
:1004C80000BF00BF1F4B0022C3F88420BFF34F8F2B
:1004D80000BF1C4B5B691B4A23F480335361BFF395
:1004E8004F8F00BF174BD3F88030FB60FB685B0B66
:1004F800C3F30E03BB60FB68DB08C3F309037B602F
:10050800BB685A0143F6E07313407A6892070D49B5
:100518001343C1F874327B685A1E7A60002BEFD1FE
:10052800BB685A1EBA60002BE5D1BFF34F8F00BFDE
:10053800BFF36F8F00BF00BF00BF1437BD465DF823
:10054800047B704700ED00E080B582B000AFFFF794
:1005580031FF00F081FD00F04BF8FFF7B9FE00F025
:10056800DBFA0346002B01D000F0BCF800F0B8FB22
:100578000346002B01D000F0B5F8FFF789FF174BB1
:1005880000221A6000237B600FE0154A7B68203345
:100598004FF0FF3142F82310BFF34F8F00BFBFF376
:1005A8006F8F00BF7B6801337B607B68072BECDDB6
:1005B8000C4B4FF010429A600B4B1B681A460B4BC2
:1005C8001A604FF010431B683B603B6883F3088850
:1005D80000BF064B1B68984700BFFDE710E000E02E
:1005E80000E100E000ED00E0040000902C00002491
:1005F80080B59CB000AF07F124034C2200211846B7
:1006080004F088F93B1D20220021184604F082F9E5
:10061800022001F077F900233B60304B9B692F4A99
:1006280043F4404393612D4B9B6903F440433B6083
:100638002B4BDB6A2A4A43F00103D362284BDB6A5F
:1006480003F001033B603B6800BF244B9B6903F444
:100658000053B3F5005FF8D101237B624FF4803378
:10066800BB620223BB640223FB6405233B65F023C2
:100678007B650223BB650223FB6502233B660823D7
:100688007B660023BB660023FB6607F1240318463C
:1006980001F048FE0346002B01D000F023F83F2369
:1006A8007B600323BB600023FB6008233B6140237E
:1006B8007B614023BB614FF48063FB6140233B6255
:1006C8003B1D0421184602F087FA0346002B01D08F
:1006D80000F008F800BF7037BD4680BD00480258DA
:1006E8000004005880B400AF72B600BF00BFFDE739
:1006F80080B584B000AF1D4B1D4A1A601B4B012208
:100708005A601A4B01229A60184B1022DA604FF097
:100718000073BB60BB6893FAA3F37B607B68FB60E4
:10072800FB68002B01D1202303E0FB68B3FA83F3B5
:10073800DBB2013B1A460D4B1A610C4B4FF4806239
:100748005A610A4B00229A61084B0022DA61074B72
:1007580000221A62054801F00FF90346002B01D068
:10076800FFF7C0FF00BF1037BD4680BD3000002432
:100778000050005280B5BCB000AF786007F1DC03D0
:1007880000221A605A609A60DA601A6107F1180349
:10079800C0220021184604F0BDF87B681B68554A42
:1007A800934240F0A3804FF000724FF00003C7E976
:1007B800062300237B6607F11803184602F03CFD68
:1007C8000346002B01D0FFF78DFF4B4BD3F8D430F5
:1007D800494A43F48043C2F8D430474BD3F8D43065
:1007E80003F480437B617B69434BD3F8E030424A92
:1007F80043F01003C2F8E0303F4BD3F8E03003F089
:1008080010033B613B693C4BD3F8E0303A4A43F074
:100818000203C2F8E030384BD3F8E03003F00203AB
:10082800FB60FB68344BD3F8E030334A43F00803ED
:10083800C2F8E030304BD3F8E03003F00803BB6077
:10084800BB680423C7F8DC300223C7F8E030002374
:10085800C7F8E4300223C7F8E8300923C7F8EC30BA
:1008680007F1DC031946254800F078FD0423C7F892
:10087800DC300223C7F8E0300023C7F8E430032354
:10088800C7F8E8300923C7F8EC3007F1DC0319464C
:100898001B4800F063FD4FF46053C7F8DC300223B7
:1008A800C7F8E0300023C7F8E4300323C7F8E8307E
:1008B8000923C7F8EC3007F1DC031946114800F0AA
:1008C8004DFD4023C7F8DC300223C7F8E030002391
:1008D800C7F8E4300323C7F8E8300A23C7F8EC3038
:1008E80007F1DC031946064800F038FD00BFF03771
:1008F800BD4680BD00500052004402580010025806
:1009080000040258000C025880B582B000AF78602D
:100918007B681B680D4A934214D10D4BD3F8D43031
:100928000B4A23F48043C2F8D4300421094800F06C
:10093800C5FE4421084800F0C1FE4FF46051074845
:1009480000F0BCFE00BF0837BD4680BD0050005215
:10095800004402580010025800040258000C0258C3
:1009680080B58EB000AFB7233B604FF48073BB6196
:100978000023FB6100233B6200237B6200237B6131
:100988000023BB620023FB6200233B6300237B63DD
:100998003B4641F288321946064801F081F8034681
:1009A800002B01D0012300E0002318463837BD464C
:1009B80080BD00BF3000002480B592B000AF7860E1
:1009C8000B46FB700023FB73FB78002B02D1052339
:1009D8003B610AE0FB78002B02D135233B6104E040
:1009E800FB78022B01D115233B614FF48073BB6266
:1009F8000023FB6200233B634FF080737B6300237B
:100A08007B620123BB630023FB6300233B64002359
:100A18007B6407F1100341F2883219460E4801F051
:100A28003FF80346002B01D0012310E007F10F0324
:100A380041F288321946084801F022F90346002B92
:100A480001D0012303E0FA7B7B681A700023184663
:100A58004837BD4680BD00BF3000002480B590B047
:100A680000AF03460A46FB711346BB71FB79002BA6
:100A780002D10123BB600AE0FB79002B02D13123AC
:100A8800BB6004E0FB79022B01D11123BB604FF45A
:100A980080733B6200237B620023BB624FF080734C
:100AA800FB620023FB6101233B6300237B6300237C
:100AB800BB630023FB6300F08FF80346002B01D0D3
:100AC800012322E007F1080341F288321946114850
:100AD80000F0E6FF0346002B01D0012315E0BB1D03
:100AE80041F2883219460B4801F038F80346002BCA
:100AF80001D0012309E041F2883000F033F80346C1
:100B0800002B01D0012300E0002318464037BD46E2
:100B180080BD00BF3000002480B500AF0F4B104AE5
:100B28001A600E4800F09CFF0346002B01D00123F9
:100B380012E0FFF7DDFDFFF713FF00F00DF90346A4
:100B4800002B01D0012307E000F090F80346002BAA
:100B580001D0012300E00023184680BD30000024A6
:100B68000050005280B596B000AF78604FF48073A3
:100B7800BB6305233B620023FB6300233B644FF008
:100B880080737B6400237B630023FB6400233B6545
:100B980000237B650023BB600123FB600023BB614E
:100BA80001237B6110233B614FF48003FB6107F154
:100BB800080207F120017B68064801F0FEF80346A9
:100BC800002B01D0012300E0002318465837BD460A
:100BD80080BD00BF3000002480B594B000AF4FF452
:100BE80080733B630623BB6100237B630023BB63E5
:100BF8000023FB630023FB6200237B640023BB64A8
:100C08000023FB6407F1180341F28832194616489D
:100C180000F046FF0346002B01D001231FE002230A
:100C28003B6002237B6000233B610123FB601023B0
:100C3800BB604FF480037B610523BB614FF0807379
:100C4800FB633A4607F1180141F28833064801F080
:100C5800B4F80346002B01D0012300E00023184616
:100C68005037BD4680BD00BF3000002480B590B02D
:100C780000AF002387F83E3007F13F0301211846F3
:100C8800FFF79AFE0346002B01D0012323E007F16A
:100C98003E0302211846FFF78FFE0346002B01D0C2
:100CA800012318E097F83F3003F00203002B11D11D
:100CB80097F83F3043F00203DBB287F83F3097F8EC
:100CC8003F3019460120FFF7C9FE0346002B01D02B
:100CD800012300E0002318464037BD4680BD0000D0
:100CE80080B590B000AF4FF480733B62EC23BB60DB
:100CF8004FF440637B624FF440537B610023FB60F9
:100D08004FF44043BB620023BB61FF233B614FF0BC
:100D18004073FB6200233B630423FB6100237B6376
:100D28000023BB630023FB6300237B6000233B603D
:100D38003A4607F108031946064801F0B5F8034694
:100D4800002B01D0012300E0002318464037BD46A0
:100D580080BD00BF3000002480B590B000AF0023F4
:100D6800FB634FF48073FB614FF440533B610023F6
:100D78007B6200233B6300237B630023BB63662302
:100D88007B6000233B620023BB600023BB6200231F
:100D9800BB613B1D41F288321946174800F080FEBE
:100DA8000346002B01D0012321E00023FB6303E06D
:100DB80000BFFB6B0133FB63FB6BC72BF8D999238F
:100DC8007B603B1D41F2883219460B4800F068FEF3
:100DD8000346002B01D0012309E041F28830FFF7D8
:100DE800C1FE0346002B01D0012300E00023184672
:100DF8004037BD4680BD00BF3000002480B483B0BA
:100E080000AF0A4BD3F8F430084A43F00203C2F8A3
:100E1800F430064BD3F8F43003F002037B607B68B0
:100E280000BF0C37BD465DF8047B7047004402588C
:100E380080B400AF00BFFDE780B400AF00BFFDE79E
:100E480080B400AF00BFFDE780B400AF00BFFDE78E
:100E580080B400AF00BFFDE780B400AF00BFBD465F
:100E68005DF8047B704780B400AF00BFBD465DF8F5
:100E7800047B704780B400AF00BFBD465DF8047BBB
:100E8800704780B500AF00F059F900BF80BD000081
:100E980080B400AF434BD3F88830424A43F4700320
:100EA800C2F88830404B1B6803F00F03062B07D8A5
:100EB8003D4B1B6823F00F033B4A43F007031360C5
:100EC8003A4B1B68394A43F001031360374B002241
:100ED8001A61364B1A683549354B13400B60324B53
:100EE8001B6803F00803002B07D02F4B1B6823F067
:100EF8000F032D4A43F0070313602C4B00229A611D
:100F08002A4B0022DA61294B00221A62274B294A10
:100F18009A62264B284ADA62244B284A1A63234BE2
:100F280000225A63214B254A9A63204B0022DA6338
:100F38001E4B224A1A641D4B00225A641B4B1B6825
:100F48001A4A23F480231360184B00221A661C4B9C
:100F58001A681C4B1340B3F1005F02D21A4B0122EE
:100F68001A60124BD3F8D43003F48053002B13D1FA
:100F78000E4BD3F8D4300D4A43F48053C2F8D43022
:100F8800124B43F2D2021A60084BD3F8D430074A06
:100F980023F48053C2F8D43000BFBD465DF8047B0B
:100FA800704700BF00ED00E00020005200440258E6
:100FB8007FEDF6EA000202020000FF018002010153
:100FC8000010005C0000FFFF088100510040005243
:100FD80080B400AF094BDB68084A43F00203D360D2
:100FE80000BF064B5B6803F40053002BF9D000BF29
:100FF80000BFBD465DF8047B704700BF004802583B
:10100800DFF838D0FFF7E4FFFFF742FF0C480D493F
:101018000D4A002302E0D458C4500433C4188C424B
:10102800F9D30A4A0A4C002301E013600432A242B1
:10103800FBD303F077FCFFF787FA7047000008241A
:101048000000002410000024A44900081000002417
:1010580080000024FEE7000080B582B000AF0320C6
:1010680000F04AF901F06EFF0246154B9B691B0A16
:1010780003F00F031349CB5C03F01F0322FA03F3B9
:101088007B600F4B9B6903F00F030E4AD35C03F0A0
:101098001F037A6822FA03F30B4A13600B4A7B6832
:1010A80013600F2000F014F80346002B01D0012331
:1010B80002E0FFF7A3FE002318460837BD4680BDAF
:1010C800004402588C490008040000240000002451
:1010D80080B582B000AF7860154B1B78002B01D12A
:1010E800012321E0134B1A68114B1B7819464FF462
:1010F8007A73B3FBF1F3B2FBF3F3184600F021F96E
:101108000346002B01D001230EE07B680F2B0AD881
:10111800002279684FF0FF3000F0F9F8064A7B6842
:101128001360002300E0012318460837BD4680BD40
:101138000C000024000000240800002480B400AF44
:10114800064B1B781A46064B1B681344044A136067
:1011580000BFBD465DF8047B704700BF0C0000244B
:101168007C00002480B400AF034B1B681846BD46C2
:101178005DF8047B704700BF7C00002480B400AF9A
:10118800034B1B681B0C1846BD465DF8047B704773
:101198000010005C80B485B000AF78607B6803F015
:1011A8000703FB600B4BDB68BB60BA684FF6FF03B5
:1011B8001340BB60FB681A02BB681A43064B134313
:1011C800BB60044ABB68D36000BF1437BD465DF8F6
:1011D800047B704700ED00E00000FA0580B400AF22
:1011E800044BDB681B0A03F007031846BD465DF88D
:1011F800047B704700ED00E080B483B000AF034685
:101208003960FB80B7F90630002B0ADB3B68DAB29D
:101218000C49B7F906301201D2B20B4483F8002307
:101228000AE03B68DAB20849FB8803F00F03043B85
:101238001201D2B20B441A7600BF0C37BD465DF8D6
:10124800047B704700E100E000ED00E080B489B065
:1012580000AFF860B9607A60FB6803F00703FB61D0
:10126800FB69C3F10703042B28BF0423BB61FB6997
:101278000433062B02D9FB69033B00E000237B61A2
:101288004FF0FF32BB6902FA03F3DA43BB681A4036
:101298007B699A404FF0FF317B6901FA03F3D94328
:1012A8007B680B40134318462437BD465DF8047B22
:1012B8007047000080B582B000AF78607B68013B62
:1012C800B3F1807F01D301230FE00A4A7B68013B19
:1012D80053600F214FF0FF30FFF78EFF054B0022C0
:1012E8009A60044B07221A60002318460837BD4647
:1012F80080BD00BF10E000E080B582B000AF78602C
:101308007868FFF747FF00BF0837BD4680BD80B546
:1013180086B000AF0346B9607A60FB81FFF75EFFD5
:1013280078617A68B9687869FFF790FF0246B7F97B
:101338000E3011461846FFF75FFF00BF1837BD464D
:1013480080BD80B582B000AF78607868FFF7B2FFE3
:10135800034618460837BD4680BD000080B489B0F2
:1013680000AF786039600023FB61894B7B6194E1B1
:101378003B681A680121FB6901FA03F313403B61DA
:101388003B69002B00F086813B685B6803F0030330
:10139800012B05D03B685B6803F00303022B30D1B7
:1013A8007B689B68BB61FB695B00032202FA03F35D
:1013B800DB43BA691340BB613B68DA68FB695B00D1
:1013C80002FA03F3BA691343BB617B68BA699A608E
:1013D8007B685B68BB610122FB6902FA03F3DB43AC
:1013E800BA691340BB613B685B681B0903F00102E3
:1013F800FB6902FA03F3BA691343BB617B68BA69F4
:101408005A603B685B6803F00303032B17D07B68C3
:10141800DB68BB61FB695B00032202FA03F3DB4371
:10142800BA691340BB613B689A68FB695B0002FAC2
:1014380003F3BA691343BB617B68BA69DA603B6836
:101448005B6803F00303022B23D1FB69DA087B688E
:10145800083253F82230BB61FB6903F007039B0095
:101468000F2202FA03F3DB43BA691340BB613B68FE
:101478001A69FB6903F007039B0002FA03F3BA69D0
:101488001343BB61FB69DA087B680832B96943F822
:1014980022107B681B68BB61FB695B00032202FAB0
:1014A80003F3DB43BA691340BB613B685B6803F035
:1014B8000302FB695B0002FA03F3BA691343BB61D9
:1014C8007B68BA691A603B685B6803F44033002B99
:1014D80000F0E0802F4BD3F8F4302E4A43F002039B
:1014E800C2F8F4302B4BD3F8F43003F00203FB605E
:1014F800FB68294AFB699B08023352F82330BB6119
:10150800FB6903F003039B000F2202FA03F3DB439A
:10151800BA691340BB617B68204A934252D07B680A
:101528001F4A934231D07B681E4A93422BD07B6876
:101538001D4A934225D07B681C4A93421FD07B6882
:101548001B4A934219D07B681A4A934213D07B688E
:10155800194A93420DD07B68184A934207D07B689A
:10156800174A934201D109232DE00A232BE00823CF
:1015780029E0072327E0062325E0052323E00423A9
:1015880021E003231FE002231DE001231BE000BF2D
:101598008000005800440258000400580000025817
:1015A8000004025800080258000C025800100258A3
:1015B8000014025800180258001C02580020025853
:1015C800002402580023FA6902F0030292009340B3
:1015D800BA691343BB613849FB699B080233BA698E
:1015E80041F823204FF0B0431B68BB613B69DB43E4
:1015F800BA691340BB613B685B6803F48013002B36
:1016080003D0BA693B691343BB614FF0B042BB6971
:1016180013604FF0B0435B68BB613B69DB43BA6959
:101628001340BB613B685B6803F40013002B03D0D5
:10163800BA693B691343BB614FF0B042BB69536061
:101648007B695B68BB613B69DB43BA691340BB617B
:101658003B685B6803F40033002B03D0BA693B692D
:101668001343BB617B69BA695A607B691B68BB61BC
:101678003B69DB43BA691340BB613B685B6803F4B1
:101688008033002B03D0BA693B691343BB617B6984
:10169800BA691A60FB690133FB613B681A68FB6928
:1016A80022FA03F3002B7FF463AE00BF00BF243798
:1016B800BD465DF8047B70470004005880B487B0CD
:1016C80000AF7860396000237B61754B3B61D9E0DE
:1016D80001227B6902FA03F33A681340FB60FB6856
:1016E800002B00F0CC806F4A7B699B08023352F8CC
:1016F8002330BB607B6903F003039B000F2202FACF
:1017080003F3BA681340BB607B68674A934237D0DB
:101718007B68664A934231D07B68654A93422BD0F6
:101728007B68644A934225D07B68634A93421FD002
:101738007B68624A934219D07B68614A934213D00E
:101748007B68604A93420DD07B685F4A934207D01A
:101758007B685E4A934201D1092312E00A2310E014
:1017680008230EE007230CE006230AE0052308E01F
:10177800042306E0032304E0022302E0012300E03F
:1017880000237A6902F0030292009340BA689A42F1
:1017980036D13B691A68FB68DB431A403B691A601B
:1017A8003B695A68FB68DB431A403B695A604FF053
:1017B800B0435A68FB68DB434FF0B04113404B60BD
:1017C8004FF0B0431A68FB68DB434FF0B041134059
:1017D8000B607B6903F003039B000F2202FA03F3FB
:1017E800BB60304A7B699B08023352F82310BB6800
:1017F800DA432C487B699B080A40023340F82320CF
:101808007B681A687B695B00032101FA03F31A43BA
:101818007B681A607B69DA087B68083253F8221003
:101828007B6903F007039B000F2202FA03F3DB43F3
:101838007A69D20819407B68083243F822107B681D
:10184800DA687B695B00032101FA03F3DB431A4082
:101858007B68DA607B685A6801217B6901FA03F3C7
:10186800DB431A407B685A607B689A687B695B0037
:10187800032101FA03F3DB431A407B689A607B6912
:1018880001337B613A687B6922FA03F3002B7FF40A
:101898001FAF00BF00BF1C37BD465DF8047B704713
:1018A8008000005800040058000002580004025844
:1018B80000080258000C0258001002580014025880
:1018C80000180258001C0258002002580024025830
:1018D80080B483B000AF78600B467B8013467B7082
:1018E8007B78002B03D07A887B689A6103E07B8839
:1018F8001A047B689A6100BF0C37BD465DF8047B0B
:101908007047000080B584B000AF7860194BDB6881
:1019180003F00403042B0AD0164BDB6803F007031B
:101928007A689A4201D001231FE000231DE0114B81
:10193800DB6823F007020F497B681343CB60FFF78E
:1019480011FCF86009E0FFF70DFC0246FB68D31AAA
:10195800B3F57A7F01D9012307E0064B5B6803F4EE
:101968000053B3F5005FEED1002318461037BD468B
:1019780080BD00BF0048025880B586B002AF7860CD
:10198800FFF7F0FBF8607B68002B01D101235FE0D3
:101998007B6893F84130DBB2002B07D17868FEF7FB
:1019A800E9FE41F28831786800F0E0FA7B681B684C
:1019B8001B6823F4F8517B689B68013B1A027B681B
:1019C8001B680A431A607B689B6C0093FB680022C3
:1019D8002021786800F0D8FA0346FB72FB7A002BC6
:1019E80035D17B681B681A681B4B13407A685268AC
:1019F80011067A68D26811437A68D26911437A6805
:101A0800126A11437A6812680B4313607B681B687B
:101A18005A68124B13407A68126911047A6852693D
:101A280011437A68926911437A6812680B435360CC
:101A38007B681B681A687B681B6842F001021A60A1
:101A48007B6800225A647B68012283F84120FB7A74
:101A580018461037BD4680BD2FFFFF00FEF8E0FF97
:101A680080B582B000AF78607B68002B01D101237C
:101A780012E07B681B681A687B681B6822F0010209
:101A88001A607868FEF740FF7B6800225A647B681A
:101A9800002283F84120002318460837BD4680BD40
:101AA80080B588B002AFF860B9607A60FFF75AFB7A
:101AB8003861FB6893F84030DBB2012B01D1022377
:101AC80048E0FB68012283F84020FB6893F8413026
:101AD800DBB2012B37D1FB6800225A64FB68022273
:101AE80083F841207B6800933B6900222021F86835
:101AF80000F04AFA0346FB75FB7D002B25D1002236
:101B0800B968F86800F077FABB685B6A002B15D1F2
:101B18007B6800933B6901220221F86800F034FADF
:101B28000346FB75FB7D002B0FD1FB681B68022267
:101B3800DA60FB68012283F8412006E0FB68012295
:101B480083F8412001E00223FB75FB68002283F83B
:101B58004020FB7D18461837BD4680BD80B58AB049
:101B680002AFF860B9607A600023FB77FFF7FAFAF2
:101B7800B861FB681B6820337B61FB6893F84030D1
:101B8800DBB2012B01D1022376E0FB68012283F846
:101B98004020FB6893F84130DBB2012B65D1FB682C
:101BA80000225A64BB68002B56D0FB68122283F8C7
:101BB8004120FB681B681B695A1CFB68DA62FB68DA
:101BC8001B681B695A1CFB689A62FB68BA685A62F0
:101BD800FB681B685A69FB681B6822F040625A61FF
:101BE8001BE07B680093BB6901220421F86800F0C0
:101BF800CBF90346FB77FB7F002B13D1FB685B6AAD
:101C08001A787B691A70FB685B6A5A1CFB685A620F
:101C1800FB68DB6A5A1EFB68DA62FB68DB6A002B2A
:101C2800DFD100E000BFFB7F002B10D17B68009361
:101C3800BB6901220221F86800F0A6F90346FB7788
:101C4800FB7F002B03D1FB681B680222DA60FB686C
:101C5800012283F841200AE0FB685B6C43F008022C
:101C6800FB685A640123FB7701E00223FB77FB68DA
:101C7800002283F84020FB7F18462037BD4680BDF0
:101C880080B58AB002AFF860B9607A600023FB774C
:101C9800FFF768FAB861FB681B689B697B61FB68A2
:101CA8001B6820333B61FB6893F84030DBB2012BA3
:101CB80001D102237DE0FB68012283F84020FB6804
:101CC80093F84130DBB2012B6CD1FB6800225A64D7
:101CD800BB68002B5DD0FB68222283F84120FB689B
:101CE8001B681B695A1CFB689A63FB681B681B69A5
:101CF8005A1CFB685A63FB68BA681A63FB681B685E
:101D08005B6923F04062FB681B6842F080625A619D
:101D1800FB681B687A699A611CE07B680093BB6961
:101D280001220621F86800F02FF90346FB77FB7FB4
:101D3800002B14D1FB681B6B3A691278D2B21A7067
:101D4800FB681B6B5A1CFB681A63FB689B6B5A1E6B
:101D5800FB689A63FB689B6B002BDED100E000BF39
:101D6800FB7F002B10D17B680093BB690122022105
:101D7800F86800F009F90346FB77FB7F002B03D1D5
:101D8800FB681B680222DA60FB68012283F84120A5
:101D98000AE0FB685B6C43F00802FB685A640123A5
:101DA800FB7701E00223FB77FB68002283F84020E1
:101DB800FB7F18462037BD4680BD80B588B002AF8E
:101DC800F860B9607A603B60FFF7CCF93861FB686E
:101DD80093F84030DBB2012B01D1022360E0FB68AD
:101DE800012283F84020FB6893F84130DBB2012BD5
:101DF8004FD1FB6800225A64FB68422283F84120D5
:101E08003B6800933B6900222021F86800F0BCF889
:101E18000346FB75FB7D002B3DD1FB681B687A6888
:101E280012689A62FB681B687A6852685A62FB6893
:101E38001B687A689268DA62FB681B681B6823F47F
:101E480040027B681B691A43FB681B6842F48002E6
:101E58001A607B68DA68BB689A624FF00062B968FA
:101E6800F86800F0C8F83B6800933B690122082134
:101E7800F86800F089F80346FB75FB7D002B0AD152
:101E8800FB681B680822DA60FB68012283F841209E
:101E980001E00223FB75FB68002283F84020FB7DEC
:101EA80018461837BD4680BD80B588B002AFF860C7
:101EB800B9607A60FFF756F93861FB6893F84030EB
:101EC800DBB2012B01D102234CE0FB68012283F82D
:101ED8004020FB6893F84130DBB2012B3BD1FB6813
:101EE80000225A64FB68822283F84120FB689B6CBD
:101EF80000933B6900222021F86800F045F803466A
:101F0800FB75FB7D002B28D1FB681B681B6823F041
:101F180008017B685A68FB681B680A431A607B687B
:101F28005B68082B10D1FB681B687A6812681A6313
:101F3800FB681B681022DA60FB681B681A68FB687C
:101F48001B6842F480121A604FF04062B968F86862
:101F580000F051F801E00223FB75FB68002283F8CA
:101F68004020FB7D18461837BD4680BD80B483B03D
:101F780000AF786039607B683A689A6400BF0C37B4
:101F8800BD465DF8047B704780B584B000AFF8604B
:101F9800B9603B601346FB711AE0BB69B3F1FF3FC0
:101FA80016D0FFF7DFF802463B68D31ABA699A429F
:101FB80002D3BB69002B0BD1FB68042283F84120B4
:101FC800FB685B6C43F00102FB685A6401230EE076
:101FD800FB681B689A68BB681340002B14BF012379
:101FE8000023DBB21A46FB799A42D6D10023184661
:101FF8001037BD4680BD80B485B000AFF860B960C9
:102008007A60BB685B6A002B09D07B68B3F1406FCC
:1020180005D0BB689A6AFB681B68013A1A61BB68FD
:102028009B69002B00F0C180BB681B6A002B63D042
:10203800FB681B68BA689268DA61BB68DB69002BC9
:1020480031D0BB68DA6ABB681B6B1A43BB685B6B31
:102058001A43BB685B6A1A43BB685B699B041A43F3
:10206800BB681B691A43BB681B6A1A43BB68DB68F9
:102078001A43BB68DB691A43BB689B691A43BB6890
:102088001B6842EA0301FB681B687A680A435A61C5
:102098007B68B3F1406F00F03F81FB681B68BA684A
:1020A80052689A6138E1BB68DA6ABB681B6B1A43ED
:1020B800BB685B6B1A43BB685B6A1A43BB685B69A6
:1020C8009B041A43BB681B691A43BB681B6A1A4303
:1020D800BB68DB691A43BB689B691A43BB681B680A
:1020E80042EA0301FB681B687A680A435A61FB6885
:1020F8001B6800229A610FE1BB68DB69002B2ED0B8
:10210800BB68DA6ABB681B6B1A43BB685B6B1A4314
:10211800BB685B6A1A43BB685B699B041A43BB686C
:102128001B6A1A43BB68DB681A43BB68DB691A433E
:10213800BB689B691A43BB681B6842EA0301FB68DA
:102148001B687A680A435A617B68B3F1406F00F0F4
:10215800E380FB681B68BA6852689A61DCE0BB6878
:10216800DA6ABB681B6B1A43BB685B6B1A43BB68B4
:102178005B6A1A43BB685B699B041A43BB681B6AAA
:102188001A43BB68DB691A43BB689B691A43BB687F
:102198001B6842EA0301FB681B687A680A435A61B4
:1021A800FB681B6800229A61B6E0BB681B6A002BBB
:1021B8005DD0FB681B68BA689268DA61BB68DB6946
:1021C800002B2ED0BB68DA6ABB681B6B1A43BB684E
:1021D8005B6B1A43BB685B6A1A43BB685B699B0409
:1021E8001A43BB681B691A43BB681B6A1A43BB685E
:1021F800DB681A43BB68DB691A43BB689B6942EA20
:102208000301FB681B687A680A435A617B68B3F16B
:10221800406F00F08180FB681B68BA6852689A6159
:102228007AE0BB68DA6ABB681B6B1A43BB685B6BF6
:102238001A43BB685B6A1A43BB685B699B041A4311
:10224800BB681B691A43BB681B6A1A43BB68DB6916
:102258001A43BB689B6942EA0301FB681B687A68FA
:102268000A435A61FB681B6800229A6154E0BB6804
:10227800DB69002B2AD0BB68DA6ABB681B6B1A4380
:10228800BB685B6B1A43BB685B6A1A43BB685B69D4
:102298009B041A43BB681B6A1A43BB68DB681A4372
:1022A800BB68DB691A43BB689B6942EA0301FB68A8
:1022B8001B687A680A435A617B68B3F1406F2BD078
:1022C800FB681B68BA6852689A6125E0BB685B6A5C
:1022D800002B21D0BB68DA6ABB681B6B1A43BB684A
:1022E8005B6B1A43BB685B6A1A43BB685B699B04F8
:1022F8001A43BB681B6A1A43BB68DB691A43BB688D
:102308009B6942EA0301FB681B687A680A435A61C1
:10231800FB681B6800229A6100BF1437BD465DF850
:10232800047B704780B58CB000AF78607B68002B69
:1023380002D1012300F048BC7B681B6803F001034D
:10234800002B00F08880994B1B6903F03803FB626F
:10235800964B9B6ABB62FB6A102B07D0FB6A182B53
:1023680011D1BB6A03F00303022B0CD18F4B1B68FE
:1023780003F40033002B6DD07B685B68002B69D1B8
:10238800012300F021BC7B685B68B3F5803F06D170
:10239800864B1B68854A43F4803313602EE07B68C4
:1023A8005B68002B0CD1814B1B68804A23F4803377
:1023B80013607E4B1B687D4A23F4802313601DE065
:1023C8007B685B68B3F5A02F0CD1784B1B68774A04
:1023D80043F480231360754B1B68744A43F48033BD
:1023E80013600BE0714B1B68704A23F48033136051
:1023F8006E4B1B686D4A23F4802313607B685B680F
:10240800002B13D0FEF7AEFE786208E0FEF7AAFEB6
:1024180002467B6AD31A642B01D90323D4E3634BA6
:102428001B6803F40033002BF0D014E0FEF79AFE8B
:10243800786208E0FEF796FE02467B6AD31A642BA0
:1024480001D90323C0E3594B1B6803F40033002B65
:10245800F0D100E000BF7B681B6803F00203002B8B
:1024680000F0CA80514B1B6903F038033B624F4BA5
:102478009B6AFB613B6A002B07D03B6A182B56D13D
:10248800FB6903F00303002B51D1484B1B6803F091
:102498000403002B05D07B68DB68002B01D10123E6
:1024A80092E3424B1B6823F019027B68DB683F49C3
:1024B80013430B60FEF756FE786208E0FEF752FE03
:1024C80002467B6AD31A022B01D903237CE3374BDC
:1024D8001B6803F00403002BF0D0FEF74FFE034601
:1024E80041F20302934217D87B681B69402B08D13D
:1024F8002E4B5B6823F47C332C4A43F4003353603F
:102508007AE02A4B5B6823F47C327B681B691B03E7
:10251800264913434B606FE0244B5B6823F0FE426F
:102528007B681B691B06214913434B6064E07B6889
:10253800DB68002B47D01D4B1B6823F019027B6812
:10254800DB681A4913430B60FEF70CFE786208E05B
:10255800FEF708FE02467B6AD31A022B01D9032331
:1025680032E3124B1B6803F00403002BF0D0FEF794
:1025780005FE034641F20302934219D87B681B69A2
:10258800402B08D1094B5B6823F47C33074A43F49A
:102598000033536030E0054B5B6823F47C327B6882
:1025A8001B691B03014913434B6025E00044025893
:1025B8009A4B5B6823F0FE427B681B691B069749B0
:1025C80013434B6018E0954B1B68944A23F00103B2
:1025D8001360FEF7C7FD786208E0FEF7C3FD024608
:1025E8007B6AD31A022B01D90323EDE28B4B1B68BC
:1025F80003F00403002BF0D17B681B6803F0100381
:10260800002B00F0A980854B1B6903F03803BB61E0
:10261800824B9B6A7B61BB69082B07D0BB69182B6F
:102628003AD17B6903F00303012B35D17B4B1B683F
:1026380003F48073002B05D07B68DB69802B01D005
:102648000123C1E2FEF79AFD034641F203029342D9
:1026580017D87B681B6A202B08D1704B5B6823F066
:10266800F8436E4A43F08043536075E06B4B5B68F8
:1026780023F0F8427B681B6A9B06684913434B604A
:102688006AE0664BDB6823F07C527B681B6A1B069A
:1026980062491343CB605FE07B68DB69002B42D063
:1026A8005E4B1B685D4A43F080031360FEF75AFDDA
:1026B800786208E0FEF756FD02467B6AD31A022BC1
:1026C80001D9032380E2554B1B6803F48073002B68
:1026D800F0D0FEF753FD034641F20302934217D8A8
:1026E8007B681B6A202B08D14C4B5B6823F0F843AE
:1026F8004A4A43F0804353602EE0484B5B6823F01E
:10270800F8427B681B6A9B06444913434B6023E0ED
:10271800424BDB6823F07C527B681B6A1B063F49EF
:102728001343CB6018E03D4B1B683C4A23F0800301
:102738001360FEF717FD786208E0FEF713FD024606
:102748007B6AD31A022B01D903233DE2334B1B6862
:1027580003F48073002BF0D17B681B6803F0080337
:10276800002B36D07B685B69002B19D02B4B5B6F35
:102778002A4A43F001035367FEF7F4FC786208E045
:10278800FEF7F0FC02467B6AD31A022B01D9032319
:102798001AE2224B5B6F03F00203002BF0D018E023
:1027A8001E4B5B6F1D4A23F001035367FEF7DAFCEB
:1027B800786208E0FEF7D6FC02467B6AD31A022B41
:1027C80001D9032300E2154B5B6F03F00203002BD2
:1027D800F0D17B681B6803F02003002B39D07B689D
:1027E8009B69002B1CD00D4B1B680C4A43F480538B
:1027F8001360FEF7B7FC786208E0FEF7B3FC024608
:102808007B6AD31A022B01D90323DDE1034B1B6832
:1028180003F40053002BF0D01BE000BF0044025823
:102828009B4B1B689A4A23F480531360FEF79AFC6B
:10283800786208E0FEF796FC02467B6AD31A022B00
:1028480001D90323C0E1924B1B6803F40053002B0A
:10285800F0D17B681B6803F00403002B00F0818033
:102868008C4B1B688B4A43F480731360FEF77AFC29
:10287800786208E0FEF776FC02467B6AD31A642B7E
:1028880001D90323A0E1834B1B6803F48073002B59
:10289800F0D07B689B68012B06D17D4B1B6F7C4A6F
:1028A80043F0010313672DE07B689B68002B0CD174
:1028B800774B1B6F764A23F001031367744B1B6F2A
:1028C800734A23F0040313671CE07B689B68052B9D
:1028D8000CD16F4B1B6F6E4A43F0040313676C4BAC
:1028E8001B6F6B4A43F0010313670BE0684B1B6FC8
:1028F800674A23F001031367654B1B6F644A23F093
:10290800040313677B689B68002B15D0FEF72AFC2D
:1029180078620AE0FEF726FC02467B6AD31A41F287
:102928008832934201D903234EE1594B1B6F03F0C0
:102938000203002BEED014E0FEF714FC78620AE0E4
:10294800FEF710FC02467B6AD31A41F288329342A2
:1029580001D9032338E14E4B1B6F03F00203002B10
:10296800EED17B685B6A002B00F02D81484B1B6918
:1029780003F03803182B00F0BD807B685B6A022BDC
:1029880040F09E80424B1B68414A23F080731360DD
:10299800FEF7E8FB786208E0FEF7E4FB02467B6A94
:1029A800D31A022B01D903230EE1394B1B6803F01C
:1029B8000073002BF0D1364B9A6A374B13407A6874
:1029C800916A7A68D26A12010A43314913438B62C9
:1029D8007B681B6B013BC3F308027B685B6B013BA5
:1029E8005B029BB21A437B689B6B013B1B0403F49D
:1029F800FE031A437B68DB6B013B1B0603F0FE43B7
:102A0800234913430B63224BDB6A214A23F001035A
:102A1800D3621F4B5A6B214B13407A68926CD200D9
:102A28001B4913434B631A4BDB6A23F00C027B6888
:102A38001B6C17491343CB62154BDB6A23F0020268
:102A48007B685B6C12491343CB62114BDB6A104AFB
:102A580043F48033D3620E4BDB6A0D4A43F40033F0
:102A6800D3620B4BDB6A0A4A43F48023D362084BD8
:102A7800DB6A074A43F00103D362054B1B68044A2B
:102A880043F080731360FEF76DFB786211E000BFBE
:102A980000440258004802580CFCFFFF0700FFFFE3
:102AA800FEF760FB02467B6AD31A022B01D9032387
:102AB8008AE0474B1B6803F00073002BF0D082E0DC
:102AC800434B1B68424A23F080731360FEF74AFBAE
:102AD800786208E0FEF746FB02467B6AD31A022BAF
:102AE80001D9032370E03A4B1B6803F00073002BF5
:102AF800F0D168E0364B9B6A3B61354B1B6BFB6042
:102B08007B685B6A012B31D03B6903F003027B6869
:102B18009B6A9A422AD13B691B0903F03F027B68F2
:102B2800DB6A9A4222D1FB68C3F308027B681B6BFD
:102B3800013B9A421AD1FB685B0A03F07F027B686B
:102B48005B6B013B9A4211D1FB681B0C03F07F02BF
:102B58007B689B6B013B9A4208D1FB681B0E03F014
:102B68007F027B68DB6B013B9A4201D001232BE09B
:102B7800174B5B6BDB08C3F30C033B617B689B6CF7
:102B88003A699A421FD0124BDB6A114A23F00103BB
:102B9800D362FEF7E7FA786200BFFEF7E3FA02466F
:102BA8007B6A9342F9D00A4B5A6B0A4B13407A68F6
:102BB800926CD200064913434B63054BDB6A044A07
:102BC80043F00103D362002318463037BD4680BD69
:102BD800004402580700FFFF80B586B000AF786058
:102BE80039607B68002B01D101239CE18A4B1B686B
:102BF80003F00F033A689A4210D9874B1B6823F0F9
:102C08000F0285493B6813430B60834B1B6803F035
:102C18000F033A689A4201D0012384E17B681B685C
:102C280003F00403002B10D07B681A697B4B9B6967
:102C380003F070039A4208D9784B9B6923F070021D
:102C48007B681B69754913438B617B681B6803F0BC
:102C58000803002B10D07B685A69704BDB6903F0BE
:102C680070039A4208D96D4BDB6923F070027B68C8
:102C78005B696A491343CB617B681B6803F01003E7
:102C8800002B10D07B689A69644BDB6903F4E0631E
:102C98009A4208D9614BDB6923F4E0627B689B693F
:102CA8005E491343CB617B681B6803F02003002B4C
:102CB80010D07B68DA69594B1B6A03F070039A429B
:102CC80008D9564B1B6A23F070027B68DB695349AD
:102CD80013430B627B681B6803F00203002B10D0C0
:102CE8007B68DA684D4B9B6903F00F039A4208D959
:102CF8004A4B9B6923F00F027B68DB684749134303
:102D08008B617B681B6803F00103002B55D0434B94
:102D18009B6923F470627B689B68404913438B610D
:102D28007B685B68022B07D13C4B1B6803F40033BC
:102D3800002B21D10123F6E07B685B68032B07D1C8
:102D4800364B1B6803F00073002B15D10123EAE012
:102D58007B685B68012B07D1304B1B6803F48073D9
:102D6800002B09D10123DEE02C4B1B6803F0040380
:102D7800002B01D10123D6E0284B1B6923F0070261
:102D88007B685B68254913430B61FEF7EBF97861B3
:102D98000AE0FEF7E7F902467B69D31A41F2883266
:102DA800934201D90323BEE01C4B1B6903F0380290
:102DB8007B685B68DB009A42EBD17B681B6803F099
:102DC8000203002B10D07B68DA68144B9B6903F070
:102DD8000F039A4208D2114B9B6923F00F027B68BC
:102DE800DB680E4913438B610B4B1B6803F00F0321
:102DF8003A689A4214D2084B1B6823F00F0206491E
:102E08003B6813430B60044B1B6803F00F033A68DD
:102E18009A4205D0012386E000200052004402585F
:102E28007B681B6803F00403002B10D07B681A69C9
:102E38003F4B9B6903F070039A4208D23C4B9B6955
:102E480023F070027B681B69394913438B617B68E7
:102E58001B6803F00803002B10D07B685A69344BB9
:102E6800DB6903F070039A4208D2314BDB6923F027
:102E780070027B685B692E491343CB617B681B68D2
:102E880003F01003002B10D07B689A69284BDB698C
:102E980003F4E0639A4208D2254BDB6923F4E0622D
:102EA8007B689B6922491343CB617B681B6803F0ED
:102EB8002003002B10D07B68DA691D4B1B6A03F0D6
:102EC80070039A4208D21A4B1B6A23F070027B687F
:102ED800DB69174913430B6200F034F80246144BC0
:102EE8009B691B0A03F00F031249CB5C03F01F0315
:102EF80022FA03F33B610E4B9B6903F00F030D4A63
:102F0800D35C03F01F033A6922FA03F30A4A1360F9
:102F18000A4A3B6913600A4B1B681846FEF7D8F843
:102F28000346FB73FB7B18461837BD4680BD00BFC0
:102F3800004402588C4900080400002400000024C2
:102F48000800002480B489B000AFB34B1B6903F0BC
:102F58003803182B00F2558101A252F823F000BF64
:102F6800CD2F00080B3200080B3200080B32000886
:102F78000B3200080B3200080B3200080B32000835
:102F8800F32F00080B3200080B3200080B32000840
:102F98000B3200080B3200080B3200080B32000815
:102FA800F92F00080B3200080B3200080B3200081A
:102FB8000B3200080B3200080B3200080B320008F5
:102FC800FF2F0008944B1B6803F02003002B09D047
:102FD800914B1B68DB0803F00303904A22FA03F3C2
:102FE800BB6111E18D4BBB610EE18D4BBB610BE108
:102FF8008C4BBB6108E1884B9B6A03F003037B6140
:10300800854B9B6A1B0903F03F033B61824BDB6ADC
:1030180003F00103FB60804B5B6BDB08C3F30C031D
:10302800FA6802FB03F307EE903AF8EE677AC7ED09
:10303800027A3B69002B00F0E1807B69022B00F0EB
:1030480083807B69022B00F2A1807B69002B03D06F
:103058007B69012B56D099E06F4B1B6803F0200366
:10306800002B2DD06C4B1B68DB0803F003036B4A65
:1030780022FA03F37B607B6807EE903AF8EE676A02
:103088003B6907EE903AF8EE677A86EEA77A624BCC
:103098001B6BC3F3080307EE903AF8EE676A97EDE7
:1030A800026ADFED615AC6EE257A76EEA77AF7EE68
:1030B800006A77EEA67A67EE277AC7ED077A87E087
:1030C8003B6907EE903AF8EE677ADFED586A86EECC
:1030D800A77A514B1B6BC3F3080307EE903AF8EE3F
:1030E800676A97ED026ADFED505AC6EE257A76EEEA
:1030F800A77AF7EE006A77EEA67A67EE277AC7ED29
:10310800077A65E03B6907EE903AF8EE677ADFEDFB
:10311800486A86EEA77A404B1B6BC3F3080307EE99
:10312800903AF8EE676A97ED026ADFED3F5AC6EE0D
:10313800257A76EEA77AF7EE006A77EEA67A67EE3A
:10314800277AC7ED077A43E03B6907EE903AF8EE35
:10315800677ADFED386A86EEA77A2F4B1B6BC3F3CD
:10316800080307EE903AF8EE676A97ED026ADFED1A
:103178002E5AC6EE257A76EEA77AF7EE006A77EE33
:10318800A67A67EE277AC7ED077A21E03B6907EE52
:10319800903AF8EE677ADFED266A86EEA77A1E4B3C
:1031A8001B6BC3F3080307EE903AF8EE676A97EDD6
:1031B800026ADFED1D5AC6EE257A76EEA77AF7EE9B
:1031C800006A77EEA67A67EE277AC7ED077A00BF1E
:1031D800114B1B6B5B0A03F07F0301333B603B68B9
:1031E80007EE903AB8EE677AD7ED076AC6EE877AA7
:1031F800FCEEE77A17EE903ABB6105E00023BB616D
:1032080002E0074BBB6100BFBB6918462437BD46C7
:103218005DF8047B704700BF004402580090D0035B
:1032280000093D00002D3101000000460024744CC7
:103238000024744A8096984B2DE9B04FCAB000AF6D
:10324800C7F81401002387F82731002387F82631AF
:10325800D7F81431D3E9002302F00064002554EABA
:10326800050349D0D7F814319B6EB3F5401F2FD012
:10327800B3F5401F28D8B3F5001F1AD0B3F5001FC7
:1032880022D8002B03D0B3F5801F07D01CE0B84B21
:10329800DB6AB74A43F40033D3621AE0D7F8143133
:1032A80008330221184601F0D1F9034687F827317F
:1032B8000FE0D7F8143128330221184601F078FAC4
:1032C800034687F8273104E0012387F8273100E017
:1032D80000BF97F82731002B0AD1A54B1B6D23F4AB
:1032E8004011D7F814319B6EA14A0B43136503E0D4
:1032F80097F8273187F82631D7F81431D3E9002316
:1033080002F480784FF0000958EA090347D0D7F84B
:1033180014319B6D042B2AD801A252F823F000BF68
:103328003D3300084B330008613300087F33000841
:103338007F3300088E4BDB6A8D4A43F40033D36237
:103348001AE0D7F8143108330021184601F07EF945
:10335800034687F827310FE0D7F8143128330021C6
:10336800184601F025FA034687F8273104E00123BF
:1033780087F8273100E000BF97F82731002B0AD1E2
:103388007B4B1B6D23F00701D7F814319B6D784AEE
:103398000B43136503E097F8273187F82631D7F8F0
:1033A8001431D3E9002302F4007A4FF0000B5AEAF3
:1033B8000B034CD0D7F81431DB6DB3F5807F30D0D8
:1033C800B3F5807F29D8C02B2DD0C02B25D8802BD2
:1033D80018D0802B21D8002B02D0402B07D01CE01E
:1033E800634BDB6A624A43F40033D3621CE0D7F8CC
:1033F800143108330021184601F028F9034687F8EC
:10340800273111E0D7F8143128330021184601F08C
:10341800CFF9034687F8273106E0012387F82731DB
:1034280002E000BF00E000BF97F82731002B0AD167
:103438004F4B1B6D23F4E071D7F81431DB6D4C4A08
:103448000B43136503E097F8273187F82631D7F83F
:103458001431D3E9002302F48063C7F8083100234C
:10346800C7F80C31D7E942120B46134353D0D7F8AB
:103478001431D3F8A830B3F5000F35D0B3F5000FE9
:103488002ED8B3F5C00F31D0B3F5C00F28D8B3F597
:10349800800F1AD0B3F5800F22D8002B03D0B3F5D4
:1034A800001F07D01CE0324BDB6A314A43F400337B
:1034B800D3621CE0D7F8143108330021184601F014
:1034C800C5F8034687F8273111E0D7F814312833B7
:1034D8000021184601F06CF9034687F8273106E009
:1034E800012387F8273102E000BF00E000BF97F80A
:1034F8002731002B0BD11E4B9B6D23F46001D7F8AD
:103508001431D3F8A8301A4A0B43936503E097F8AF
:10351800273187F82631D7F81431D3E9002302F48C
:103528000063C7F800310023C7F80431D7E9401217
:103538000B46134356D0D7F81431D3F8AC30B3F157
:10354800806F38D0B3F1806F31D8B3F1407F34D079
:10355800B3F1407F2BD8B3F1007F1DD0B3F1007FCA
:1035680025D8002B06D0B3F1807F0AD01FE000BF1A
:1035780000440258A24BDB6AA14A43F40033D362E9
:103588001CE0D7F8143108330021184601F05EF822
:10359800034687F8273111E0D7F814312833002182
:1035A800184601F005F9034687F8273106E001239C
:1035B80087F8273102E000BF00E000BF97F8273105
:1035C800002B0BD18E4B9B6D23F0E061D7F81431A3
:1035D800D3F8AC308A4A0B43936503E097F8273158
:1035E80087F82631D7F81431D3E9002302F00073A5
:1035F800C7F8F8300023C7F8FC30D7E93E120B466D
:1036080013433AD0D7F81431DB6C302B1FD0302B52
:1036180019D8202B0CD0202B15D8002B19D0102B03
:1036280011D1774BDB6A764A43F40033D36211E059
:10363800D7F8143108330221184601F007F8034679
:1036480087F8273106E0012387F8273102E000BF19
:1036580000E000BF97F82731002B0AD1684BDB6CDC
:1036680023F03001D7F81431DB6C654A0B43D3647F
:1036780003E097F8273187F82631D7F81431D3E9D2
:10368800002302F48053C7F8F0300023C7F8F43061
:10369800D7E93C120B46134351D0D7F814311B6EAF
:1036A800B3F5804F35D0B3F5804F2ED8B3F5405FD2
:1036B80031D0B3F5405F28D8B3F5005F1AD0B3F521
:1036C800005F22D8002B03D0B3F5805F07D01CE041
:1036D8004B4BDB6A4A4A43F40033D3621CE0D7F809
:1036E800143108330021184600F0B0FF034687F86C
:1036F800273111E0D7F8143128330021184601F09A
:1037080057F8034687F8273106E0012387F8273161
:1037180002E000BF00E000BF97F82731002B0AD174
:10372800374B1B6D23F4E041D7F814311B6E344A34
:103738000B43136503E097F8273187F82631D7F84C
:103748001431D3E9002302F40053C7F8E83000230A
:10375800C7F8EC30D7E93A120B46134356D0D7F8DE
:1037680014315B6EB3F5A02F33D0B3F5A02F2CD84E
:10377800B3F5802F2FD0B3F5802F26D8B3F5403F6F
:103788002BD0B3F5403F20D8B3F5003F12D0B3F5A6
:10379800003F1AD8002B22D0B3F5803F15D1D7F8B7
:1037A800143108330121184600F050FF034687F80A
:1037B800273115E0D7F8143128330121184600F0D5
:1037C800F7FF034687F827310AE0012387F82731F6
:1037D80006E000BF04E000BF02E000BF00E000BF59
:1037E80097F82731002B0DD1054B1B6D23F4E021F1
:1037F800D7F814315B6E024A0B43136506E000BF2D
:103808000044025897F8273187F82631D7F8143141
:10381800D3E9002302F48043C7F8E0300023C7F857
:10382800E430D7E938120B46134355D0D7F8143192
:10383800D3F8B030B3F1A04F33D0B3F1A04F2CD8A8
:10384800B3F1804F2FD0B3F1804F26D8B3F1405F4A
:103858002BD0B3F1405F20D8B3F1005F12D0B3F1A1
:10386800005F1AD8002B22D0B3F1805F15D1D7F8AA
:10387800143108330121184600F0E8FE034687F8A2
:10388800273115E0D7F8143128330121184600F004
:103898008FFF034687F827310AE0012387F827318D
:1038A80006E000BF04E000BF02E000BF00E000BF88
:1038B80097F82731002B0BD1A34B9B6D23F0E041E8
:1038C800D7F81431D3F8B0309F4A0B43936503E01F
:1038D80097F8273187F82631D7F81431D3E9002330
:1038E80002F40043C7F8D8300023C7F8DC30D7E922
:1038F80036120B46134337D0D7F814311B6FB3F188
:10390800005F0ED0B3F1005F16D8002B18D0B3F1CA
:10391800805F11D18C4BDB6A8B4A43F40033D3624E
:103928000FE0D7F8143108330121184600F08EFE55
:10393800034687F8273104E0012387F8273100E0A0
:1039480000BF97F82731002B0AD17F4B1B6D23F05E
:103958004051D7F814311B6F7B4A0B43136503E0C2
:1039680097F8273187F82631D7F81431D3E900239F
:1039780002F08073C7F8D0300023C7F8D430D7E9F5
:1039880034120B46134339D0D7F814319B6C032BF0
:103998001CD801A252F823F0DD390008B13900081B
:1039A800BF390008DD390008674BDB6A664A43F413
:1039B8000033D3620FE0D7F81431083302211846D8
:1039C80000F044FE034687F8273104E0012387F816
:1039D800273100E000BF97F82731002B0AD15A4B56
:1039E800DB6C23F00301D7F814319B6C564A0B4368
:1039F800D36403E097F8273187F82631D7F81431D4
:103A0800D3E9002302F48003C7F8C8300023C7F8BD
:103A1800CC30D7E932120B46134300F09F804B4B52
:103A28001B684A4A43F480731360FDF79BFBC7F891
:103A380020010BE0FDF796FB0246D7F82031D31A98
:103A4800642B03D9032387F8273105E03F4B1B6814
:103A580003F48073002BEDD097F82731002B79D130
:103A6800394B1A6FD7F81431D3F8B430534003F4F4
:103A78004073002B15D0344B1B6F23F44073C7F8E9
:103A88001C31314B1B6F304A43F4803313672E4B84
:103A98001B6F2D4A23F4803313672B4AD7F81C3148
:103AA8001367D7F81431D3F8B430B3F5807F18D141
:103AB800FDF758FBC7F820010DE0FDF753FB024660
:103AC800D7F82031D21A41F288339A4203D9032316
:103AD80087F8273105E01C4B1B6F03F00203002B0E
:103AE800EBD097F82731002B29D1D7F81431D3F828
:103AF800B43003F44073B3F5407F0ED1124B1B6909
:103B080023F47C51D7F81431D3F8B4301A09104B88
:103B180013400D4A0B43136105E00B4B1B690A4A1E
:103B280023F47C531361084B196FD7F81431D3F879
:103B3800B430C3F30B03044A0B4313670EE097F842
:103B4800273187F8263109E0004402580048025816
:103B5800CFFFFF0097F8273187F82631D7F81431BF
:103B6800D3E9002302F00103C7F8C0300023C7F8E7
:103B7800C430D7E930120B46134300F08980D7F8D8
:103B88001431DB6F282B6BD801A252F823F000BF49
:103B9800713C0008693C0008693C0008693C000861
:103BA800693C0008693C0008693C0008693C000859
:103BB8003D3C0008693C0008693C0008693C000875
:103BC800693C0008693C0008693C0008693C000839
:103BD800533C0008693C0008693C0008693C00083F
:103BE800693C0008693C0008693C0008693C000819
:103BF800713C0008693C0008693C0008693C000801
:103C0800693C0008693C0008693C0008693C0008F8
:103C1800713C0008693C0008693C0008693C0008E0
:103C2800693C0008693C0008693C0008693C0008D8
:103C3800713C0008D7F8143108330121184600F008
:103C480005FD034687F827310FE0D7F814312833EC
:103C58000121184600F0ACFD034687F8273104E03F
:103C6800012387F8273100E000BF97F82731002BA0
:103C78000AD1BF4B5B6D23F03801D7F81431DB6FE5
:103C8800BB4A0B43536503E097F8273187F8263181
:103C9800D7F81431D3E9002302F00203C7F8B8308B
:103CA8000023C7F8BC30D7E92E120B46134341D086
:103CB800D7F814319B6F052B24D801A252F823F0B2
:103CC800153D0008E13C0008F73C0008153D0008D8
:103CD800153D0008153D0008D7F8143108330121B7
:103CE800184600F0B3FC034687F827310FE0D7F8F1
:103CF800143128330121184600F05AFD034687F88D
:103D0800273104E0012387F8273100E000BF97F846
:103D18002731002B0AD1964B5B6D23F00701D7F8AA
:103D280014319B6F924A0B43536503E097F8273190
:103D380087F82631D7F81431D3E9002302F00403B9
:103D4800C7F8B0300023C7F8B430D7E92C120B46B7
:103D5800134344D0D7F81431D3F89430052B25D821
:103D680001A252F823F000BFBD3D0008893D0008BC
:103D78009F3D0008BD3D0008BD3D0008BD3D000851
:103D8800D7F8143108330121184600F05FFC0346C8
:103D980087F827310FE0D7F8143128330121184666
:103DA80000F006FD034687F8273104E0012387F871
:103DB800273100E000BF97F82731002B0BD16C4B5F
:103DC8009B6D23F00701D7F81431D3F89430684A73
:103DD8000B43936503E097F8273187F82631D7F826
:103DE8001431D3E9002302F02003C7F8A8300023D8
:103DF800C7F8AC30D7E92A120B46134355D0D7F889
:103E08001431D3F89030B3F1A04F33D0B3F1A04FB1
:103E18002CD8B3F1804F2FD0B3F1804F26D8B3F10F
:103E2800405F2BD0B3F1405F20D8B3F1005F12D0D0
:103E3800B3F1005F1AD8002B22D0B3F1805F15D1FF
:103E4800D7F8143108330021184600F0FFFB034669
:103E580087F8273115E0D7F814312833022118469E
:103E680000F0A6FC034687F827310AE0012387F80B
:103E7800273106E000BF04E000BF02E000BF00E019
:103E880000BF97F82731002B0BD1394B5B6D23F01E
:103E9800E041D7F81431D3F89030354A0B435365D5
:103EA80003E097F8273187F82631D7F81431D3E99A
:103EB800002302F04003C7F8A0300023C7F8A4305D
:103EC800D7E928120B46134358D0D7F81431D3F842
:103ED8009C30B3F5A05F33D0B3F5A05F2CD8B3F511
:103EE800805F2FD0B3F5805F26D8B3F5406F2BD015
:103EF800B3F5406F20D8B3F5006F12D0B3F5006F5B
:103F08001AD8002B22D0B3F5806F15D1D7F8143109
:103F180008330021184600F099FB034687F827313B
:103F280015E0D7F8143128330221184600F040FC78
:103F3800034687F827310AE0012387F8273106E08E
:103F480000BF04E000BF02E000BF00E000BF97F838
:103F58002731002B0ED1064B9B6D23F4E051D7F887
:103F68001431D3F89C30024A0B43936506E000BF36
:103F78000044025897F8273187F82631D7F81431CA
:103F8800D3E9002302F08003C7F898300023C7F86C
:103F98009C30D7E926120B46134355D0D7F8143175
:103FA800D3F8A030B3F5204F33D0B3F5204F2CD839
:103FB800B3F5004F2FD0B3F5004F26D8B3F5C04F57
:103FC8002BD0B3F5C04F20D8B3F5804F12D0B3F53E
:103FD800804F1AD8002B22D0B3F5005F15D1D7F83F
:103FE800143108330021184600F030FB034687F8E7
:103FF800273115E0D7F8143128330221184600F08C
:10400800D7FB034687F827310AE0012387F82731D1
:1040180006E000BF04E000BF02E000BF00E000BF10
:1040280097F82731002B0BD1A14B9B6D23F46041EE
:10403800D7F81431D3F8A0309D4A0B43936503E0B9
:1040480097F8273187F82631D7F81431D3E90023B8
:1040580002F00803C7F890300023C7F89430D7E976
:1040680024120B4613431ED0D7F81431D3F88430EA
:10407800B3F5805F0CD1D7F81431283302211846E4
:1040880000F096FB0346002B02D0012387F8263167
:10409800874B5B6D23F44051D7F81431D3F8843043
:1040A800834A0B435365D7F81431D3E9002302F050
:1040B8001003C7F888300023C7F88C30D7E92212DC
:1040C8000B4613431ED0D7F81431D3F89830B3F504
:1040D800807F0CD1D7F8143128330221184600F01C
:1040E80067FB0346002B02D0012387F82631704B6B
:1040F8009B6D23F44071D7F81431D3F898306C4A8B
:104108000B439365D7F81431D3E9002302F4002355
:10411800C7F880300023C7F88430D7E920120B464F
:1041280013433ED0D7F81431D3F8A430B3F5003F89
:1041380022D0B3F5003F1BD8002B03D0B3F5803F46
:104148000BD015E0D7F8143108330021184600F0D9
:104158007DFA034687F827310FE0D7F81431283362
:104168000221184600F024FB034687F8273104E0B3
:10417800012387F8273100E000BF97F82731002B8B
:104188000BD14B4B9B6D23F44031D7F81431D3F846
:10419800A430474A0B43936503E097F8273187F823
:1041A8002631D7F81431D3E9002302F48023BB6702
:1041B8000023FB67D7E91E120B4613433BD0D7F801
:1041C8001431D3F88830B3F5401F1FD0B3F5401F22
:1041D80018D8B3F5801F03D0B3F5001F07D011E03E
:1041E800334BDB6A324A43F40033D3620FE0D7F82B
:1041F800143128330121184600F0DAFA034687F80B
:10420800273104E0012387F8273100E000BF97F841
:104218002731002B0BD1264B5B6D23F44011D7F8C7
:104228001431D3F88830224A0B43536503E097F8DA
:10423800273187F82631D7F81431D3E9002302F45F
:1042480080333B6700237B67D7E91C120B46134377
:1042580034D0D7F814311B6D002B03D0B3F5803F51
:1042680007D011E0124BDB6A114A43F40033D362E2
:104278000EE0D7F8143108330221184600F0E6F9A9
:10428800034687F8273103E0012387F8273100BF69
:1042980097F82731002B0DD1054BDB6C23F48031C7
:1042A800D7F814311B6D024A0B43D36406E000BFF4
:1042B8000044025897F8273187F82631D7F8143187
:1042C800D3E9002302F00053BB660023FB66D7E95D
:1042D8001A120B4613430CD0D7F814312833022195
:1042E800184600F065FA0346002B02D0012387F830
:1042F8002631D7F81431D3E9002302F400333B66A2
:1043080000237B66D7E918120B46134338D0D7F839
:104318001431D3F88030B3F5407F18D0B3F5407F1F
:1043280011D8B3F5007F14D0B3F5007F0BD8002B5C
:1043380011D0B3F5807F06D1C34BDB6AC24A43F480
:104348000033D36208E0012387F8273104E000BF77
:1043580002E000BF00E000BF97F82731002B0BD127
:10436800B94B5B6D23F44071D7F81431D3F8803022
:10437800B54A0B43536503E097F8273187F8263190
:10438800D7F81431D3E9002302F48013BB65002366
:10439800FB65D7E916120B46134309D0AA4B1B6DD0
:1043A80023F00041D7F814315B6FA74A0B4313651C
:1043B800D7F81431D3E9002302F080533B6500237A
:1043C8007B65D7E914120B4613430AD09E4B1B6931
:1043D80023F48041D7F81431D3F8B8309A4A0B4304
:1043E8001361D7F81431D3E9002302F40013BB6436
:1043F8000023FB64D7E912120B46134309D0924BF2
:104408001B6D23F08071D7F81431DB6E8E4A0B4395
:104418001365D7F81431D3E9002302F080433B64D5
:1044280000237B64D7E910120B4613430ED0864B4A
:104438001B69854A23F400431361834B1969D7F834
:104448001431D3F8BC30804A0B431361D7F81431C8
:10445800D3E9002302F00043BB630023FB63D7E9E1
:104468000E120B46134309D0774BDB6C23F04051F7
:10447800D7F814315B6D744A0B43D364D7F8143101
:10448800D3E9002302F400033B6300237B63D7E9ED
:104498000C120B4613430AD06B4B5B6D23F440019F
:1044A800D7F81431D3F88C30674A0B435365D7F8E3
:1044B8001431D3E900230021B96203F00103FB6240
:1044C800D7E90A120B46134311D0D7F81431083331
:1044D8000021184600F0BAF8034687F8273197F804
:1044E8002731002B03D097F8273187F82631D7F8E2
:1044F8001431D3E900230021396203F002037B62FF
:10450800D7E908120B46134311D0D7F814310833F2
:104518000121184600F09AF8034687F8273197F8E2
:104528002731002B03D097F8273187F82631D7F8A1
:104538001431D3E900230021B96103F00403FB61BE
:10454800D7E906120B46134311D0D7F814310833B4
:104558000221184600F07AF8034687F8273197F8C1
:104568002731002B03D097F8273187F82631D7F861
:104578001431D3E900230021396103F008037B617A
:10458800D7E904120B46134311D0D7F81431283356
:104598000021184600F00CF9034687F8273197F8F0
:1045A8002731002B03D097F8273187F82631D7F821
:1045B8001431D3E900230021B96003F01003FB6034
:1045C800D7E902120B46134311D0D7F81431283318
:1045D8000121184600F0ECF8034687F8273197F8D0
:1045E8002731002B03D097F8273187F82631D7F8E1
:1045F8001431D3E900230021396003F020037B60E4
:10460800D7E900120B46134311D0D7F814312833D9
:104618000221184600F0CCF8034687F8273197F8AE
:104628002731002B03D097F8273187F8263197F8E0
:104638002631002B01D1002300E00123184607F59D
:104648009477BD46BDE8B08F0044025880B584B069
:1046580000AF786039600023FB73534B9B6A03F00B
:104668000303032B01D1012399E04F4B1B684E4AEA
:1046780023F080631360FCF775FDB86008E0FCF771
:1046880071FD0246BB68D31A022B01D9032386E0C9
:10469800454B1B6803F00063002BF0D1424B9B6A2B
:1046A80023F47C327B681B681B033F4913438B62EE
:1046B8007B685B68013BC3F308027B689B68013B2E
:1046C8005B029BB21A437B68DB68013B1B0403F463
:1046D800FE031A437B681B69013B1B0603F0FE437C
:1046E800314913438B63304BDB6A23F0C0027B688C
:1046F8005B692D491343CB622B4BDB6A23F0200205
:104708007B689B6928491343CB62274BDB6A264A9F
:1047180023F01003D362244BDA6B244B13407A68DE
:10472800D269D20020491343CB631F4BDB6A1E4A70
:1047380043F01003D3623B68002B06D11A4BDB6AA7
:10474800194A43F40023D3620FE03B68012B06D1DA
:10475800154BDB6A144A43F48013D36205E0124B0D
:10476800DB6A114A43F40013D3620F4B1B680E4AED
:1047780043F080631360FCF7F5FCB86008E0FCF7D1
:10478800F1FC0246BB68D31A022B01D9032306E0C9
:10479800054B1B6803F00063002BF0D0FB7B184629
:1047A8001037BD4680BD00BF004402580700FFFF18
:1047B80080B584B000AF786039600023FB73534B39
:1047C8009B6A03F00303032B01D1012399E04F4BAC
:1047D8001B684E4A23F080531360FCF7C3FCB86093
:1047E80008E0FCF7BFFC0246BB68D31A022B01D9CC
:1047F800032386E0454B1B6803F00053002BF0D1E0
:10480800424B9B6A23F07C727B681B681B053F49FF
:1048180013438B627B685B68013BC3F308027B68C8
:104828009B68013B5B029BB21A437B68DB68013BD8
:104838001B0403F4FE031A437B681B69013B1B0638
:1048480003F0FE43314913430B64304BDB6A23F416
:1048580040627B685B692D491343CB622B4BDB6A53
:1048680023F400727B689B6928491343CB62274B6A
:10487800DB6A264A23F48073D362244B5A6C244B98
:1048880013407A68D269D200204913434B641F4B06
:10489800DB6A1E4A43F48073D3623B68002B06D15F
:1048A8001A4BDB6A194A43F48003D3620FE03B6872
:1048B800012B06D1154BDB6A144A43F40003D3627B
:1048C80005E0124BDB6A114A43F08073D3620F4B49
:1048D8001B680E4A43F080531360FCF743FCB86032
:1048E80008E0FCF73FFC0246BB68D31A022B01D94B
:1048F800032306E0054B1B6803F00053002BF0D0A0
:10490800FB7B18461037BD4680BD00BF00440258E7
:104918000700FFFF02440346934200D1704703F8A3
:10492800011BF9E770B50D4D0D4C641BA410002652
:10493800A64209D10B4D0C4C00F018F8641BA410CA
:104948000026A64205D170BD55F8043B98470136AC
:10495800EEE755F8043B98470136F2E79C49000812
:104968009C4900089C490008A0490008F8B500BF08
:10497800F8BC08BC9E467047F8B500BFF8BC08BC38
:044988009E46704790
:10498C0000000000010203040102030406070809E9
:04499C00BD02000850
:0449A0009902000870
:1049A4000090D0030090D00310000000010000002C
:0400000508001009D6
:00000001FF
